{
  "_format": "hh-sol-artifact-1",
  "contractName": "HospitalManagement",
  "sourceName": "contracts/contracts.sol",
  "abi": [
    {
      "inputs": [],
      "stateMutability": "nonpayable",
      "type": "constructor"
    },
    {
      "anonymous": false,
      "inputs": [
        {
          "indexed": true,
          "internalType": "uint256",
          "name": "id",
          "type": "uint256"
        },
        {
          "indexed": false,
          "internalType": "address",
          "name": "approver",
          "type": "address"
        }
      ],
      "name": "AppointmentApproved",
      "type": "event"
    },
    {
      "anonymous": false,
      "inputs": [
        {
          "indexed": true,
          "internalType": "uint256",
          "name": "id",
          "type": "uint256"
        },
        {
          "indexed": false,
          "internalType": "address",
          "name": "patient",
          "type": "address"
        },
        {
          "indexed": false,
          "internalType": "address",
          "name": "doctor",
          "type": "address"
        }
      ],
      "name": "AppointmentBooked",
      "type": "event"
    },
    {
      "anonymous": false,
      "inputs": [
        {
          "indexed": true,
          "internalType": "address",
          "name": "patient",
          "type": "address"
        },
        {
          "indexed": true,
          "internalType": "address",
          "name": "doctor",
          "type": "address"
        },
        {
          "indexed": false,
          "internalType": "bool",
          "name": "isGranted",
          "type": "bool"
        }
      ],
      "name": "DataShared",
      "type": "event"
    },
    {
      "anonymous": false,
      "inputs": [
        {
          "indexed": true,
          "internalType": "address",
          "name": "user",
          "type": "address"
        },
        {
          "indexed": false,
          "internalType": "enum HospitalManagement.Role",
          "name": "role",
          "type": "uint8"
        }
      ],
      "name": "UserApproved",
      "type": "event"
    },
    {
      "anonymous": false,
      "inputs": [
        {
          "indexed": true,
          "internalType": "address",
          "name": "user",
          "type": "address"
        },
        {
          "indexed": false,
          "internalType": "string",
          "name": "name",
          "type": "string"
        },
        {
          "indexed": false,
          "internalType": "enum HospitalManagement.Role",
          "name": "role",
          "type": "uint8"
        }
      ],
      "name": "UserRegistered",
      "type": "event"
    },
    {
      "inputs": [],
      "name": "admin",
      "outputs": [
        {
          "internalType": "address",
          "name": "",
          "type": "address"
        }
      ],
      "stateMutability": "view",
      "type": "function"
    },
    {
      "inputs": [],
      "name": "appointmentCount",
      "outputs": [
        {
          "internalType": "uint256",
          "name": "",
          "type": "uint256"
        }
      ],
      "stateMutability": "view",
      "type": "function"
    },
    {
      "inputs": [
        {
          "internalType": "uint256",
          "name": "",
          "type": "uint256"
        }
      ],
      "name": "appointments",
      "outputs": [
        {
          "internalType": "uint256",
          "name": "id",
          "type": "uint256"
        },
        {
          "internalType": "address",
          "name": "patient",
          "type": "address"
        },
        {
          "internalType": "address",
          "name": "doctor",
          "type": "address"
        },
        {
          "internalType": "string",
          "name": "details",
          "type": "string"
        },
        {
          "internalType": "bool",
          "name": "isApprovedByDoctor",
          "type": "bool"
        },
        {
          "internalType": "bool",
          "name": "isApprovedByAdmin",
          "type": "bool"
        }
      ],
      "stateMutability": "view",
      "type": "function"
    },
    {
      "inputs": [
        {
          "internalType": "uint256",
          "name": "_id",
          "type": "uint256"
        }
      ],
      "name": "approveAppointment",
      "outputs": [],
      "stateMutability": "nonpayable",
      "type": "function"
    },
    {
      "inputs": [
        {
          "internalType": "address",
          "name": "_user",
          "type": "address"
        }
      ],
      "name": "approveUser",
      "outputs": [],
      "stateMutability": "nonpayable",
      "type": "function"
    },
    {
      "inputs": [
        {
          "internalType": "address",
          "name": "_doctor",
          "type": "address"
        },
        {
          "internalType": "string",
          "name": "_details",
          "type": "string"
        }
      ],
      "name": "bookAppointment",
      "outputs": [],
      "stateMutability": "nonpayable",
      "type": "function"
    },
    {
      "inputs": [
        {
          "internalType": "address",
          "name": "_patient",
          "type": "address"
        }
      ],
      "name": "checkDataAccess",
      "outputs": [
        {
          "internalType": "bool",
          "name": "",
          "type": "bool"
        }
      ],
      "stateMutability": "view",
      "type": "function"
    },
    {
      "inputs": [
        {
          "internalType": "address",
          "name": "",
          "type": "address"
        },
        {
          "internalType": "address",
          "name": "",
          "type": "address"
        }
      ],
      "name": "dataAccess",
      "outputs": [
        {
          "internalType": "bool",
          "name": "",
          "type": "bool"
        }
      ],
      "stateMutability": "view",
      "type": "function"
    },
    {
      "inputs": [
        {
          "internalType": "address",
          "name": "_doctor",
          "type": "address"
        }
      ],
      "name": "grantDataAccess",
      "outputs": [],
      "stateMutability": "nonpayable",
      "type": "function"
    },
    {
      "inputs": [
        {
          "internalType": "string",
          "name": "_name",
          "type": "string"
        },
        {
          "internalType": "enum HospitalManagement.Role",
          "name": "_role",
          "type": "uint8"
        }
      ],
      "name": "registerUser",
      "outputs": [],
      "stateMutability": "nonpayable",
      "type": "function"
    },
    {
      "inputs": [
        {
          "internalType": "address",
          "name": "_doctor",
          "type": "address"
        }
      ],
      "name": "revokeDataAccess",
      "outputs": [],
      "stateMutability": "nonpayable",
      "type": "function"
    },
    {
      "inputs": [
        {
          "internalType": "address",
          "name": "",
          "type": "address"
        }
      ],
      "name": "users",
      "outputs": [
        {
          "internalType": "address",
          "name": "userAddress",
          "type": "address"
        },
        {
          "internalType": "string",
          "name": "name",
          "type": "string"
        },
        {
          "internalType": "enum HospitalManagement.Role",
          "name": "role",
          "type": "uint8"
        },
        {
          "internalType": "bool",
          "name": "isApproved",
          "type": "bool"
        }
      ],
      "stateMutability": "view",
      "type": "function"
    }
  ],
  "bytecode": "0x608060405234801561001057600080fd5b50336000806101000a81548173ffffffffffffffffffffffffffffffffffffffff021916908373ffffffffffffffffffffffffffffffffffffffff16021790555060405180608001604052803373ffffffffffffffffffffffffffffffffffffffff1681526020016040518060400160405280600581526020017f41646d696e0000000000000000000000000000000000000000000000000000008152508152602001600260038111156100c7576100c66101c7565b5b815260200160011515815250600160003373ffffffffffffffffffffffffffffffffffffffff1673ffffffffffffffffffffffffffffffffffffffff16815260200190815260200160002060008201518160000160006101000a81548173ffffffffffffffffffffffffffffffffffffffff021916908373ffffffffffffffffffffffffffffffffffffffff160217905550602082015181600101908161016e9190610446565b5060408201518160020160006101000a81548160ff0219169083600381111561019a576101996101c7565b5b021790555060608201518160020160016101000a81548160ff021916908315150217905550905050610518565b7f4e487b7100000000000000000000000000000000000000000000000000000000600052602160045260246000fd5b600081519050919050565b7f4e487b7100000000000000000000000000000000000000000000000000000000600052604160045260246000fd5b7f4e487b7100000000000000000000000000000000000000000000000000000000600052602260045260246000fd5b6000600282049050600182168061027757607f821691505b60208210810361028a57610289610230565b5b50919050565b60008190508160005260206000209050919050565b60006020601f8301049050919050565b600082821b905092915050565b6000600883026102f27fffffffffffffffffffffffffffffffffffffffffffffffffffffffffffffffff826102b5565b6102fc86836102b5565b95508019841693508086168417925050509392505050565b6000819050919050565b6000819050919050565b600061034361033e61033984610314565b61031e565b610314565b9050919050565b6000819050919050565b61035d83610328565b6103716103698261034a565b8484546102c2565b825550505050565b600090565b610386610379565b610391818484610354565b505050565b5b818110156103b5576103aa60008261037e565b600181019050610397565b5050565b601f8211156103fa576103cb81610290565b6103d4846102a5565b810160208510156103e3578190505b6103f76103ef856102a5565b830182610396565b50505b505050565b600082821c905092915050565b600061041d600019846008026103ff565b1980831691505092915050565b6000610436838361040c565b9150826002028217905092915050565b61044f826101f6565b67ffffffffffffffff81111561046857610467610201565b5b610472825461025f565b61047d8282856103b9565b600060209050601f8311600181146104b0576000841561049e578287015190505b6104a8858261042a565b865550610510565b601f1984166104be86610290565b60005b828110156104e6578489015182556001820191506020850194506020810190506104c1565b8683101561050357848901516104ff601f89168261040c565b8355505b6001600288020188555050505b505050505050565b6125fc806105276000396000f3fe608060405234801561001057600080fd5b50600436106100b45760003560e01c806387a4ab721161007157806387a4ab721461018e578063a87430ba146101aa578063c4a68af8146101dd578063d624fdb61461020d578063eebc3fb214610229578063f851a44014610247576100b4565b8063064eac8a146100b957806312dc9013146100d5578063338e12eb1461010a5780633fbef880146101265780635894118714610142578063686fc54e14610172575b600080fd5b6100d360048036038101906100ce919061172c565b610265565b005b6100ef60048036038101906100ea919061172c565b6104c0565b60405161010196959493929190611854565b60405180910390f35b610124600480360381019061011f9190611a16565b6105de565b005b610140600480360381019061013b9190611a9e565b6108b8565b005b61015c60048036038101906101579190611a9e565b610b35565b6040516101699190611acb565b60405180910390f35b61018c60048036038101906101879190611ae6565b610c7e565b005b6101a860048036038101906101a39190611a9e565b611038565b005b6101c460048036038101906101bf9190611a9e565b6112a2565b6040516101d49493929190611bb9565b60405180910390f35b6101f760048036038101906101f29190611c05565b611394565b6040516102049190611acb565b60405180910390f35b61022760048036038101906102229190611a9e565b6113c3565b005b6102316116b8565b60405161023e9190611c45565b60405180910390f35b61024f6116be565b60405161025c9190611c60565b60405180910390f35b60006002600083815260200190815260200160002060000154036102be576040517f08c379a00000000000000000000000000000000000000000000000000000000081526004016102b590611cc7565b60405180910390fd5b60008054906101000a900473ffffffffffffffffffffffffffffffffffffffff1673ffffffffffffffffffffffffffffffffffffffff163373ffffffffffffffffffffffffffffffffffffffff16148061037957506002600082815260200190815260200160002060020160009054906101000a900473ffffffffffffffffffffffffffffffffffffffff1673ffffffffffffffffffffffffffffffffffffffff163373ffffffffffffffffffffffffffffffffffffffff16145b6103b8576040517f08c379a00000000000000000000000000000000000000000000000000000000081526004016103af90611d33565b60405180910390fd5b6002600082815260200190815260200160002060020160009054906101000a900473ffffffffffffffffffffffffffffffffffffffff1673ffffffffffffffffffffffffffffffffffffffff163373ffffffffffffffffffffffffffffffffffffffff16036104555760016002600083815260200190815260200160002060040160006101000a81548160ff021916908315150217905550610485565b60016002600083815260200190815260200160002060040160016101000a81548160ff0219169083151502179055505b807f84beffd54f5407544459b5beacd3e675291d775c7866cc5050b215d585d28796336040516104b59190611c60565b60405180910390a250565b60026020528060005260406000206000915090508060000154908060010160009054906101000a900473ffffffffffffffffffffffffffffffffffffffff16908060020160009054906101000a900473ffffffffffffffffffffffffffffffffffffffff169080600301805461053590611d82565b80601f016020809104026020016040519081016040528092919081815260200182805461056190611d82565b80156105ae5780601f10610583576101008083540402835291602001916105ae565b820191906000526020600020905b81548152906001019060200180831161059157829003601f168201915b5050505050908060040160009054906101000a900460ff16908060040160019054906101000a900460ff16905086565b6003808111156105f1576105f0611b42565b5b600160003373ffffffffffffffffffffffffffffffffffffffff1673ffffffffffffffffffffffffffffffffffffffff16815260200190815260200160002060020160009054906101000a900460ff16600381111561065357610652611b42565b5b14610693576040517f08c379a000000000000000000000000000000000000000000000000000000000815260040161068a90611dff565b60405180910390fd5b600060038111156106a7576106a6611b42565b5b8160038111156106ba576106b9611b42565b5b14806106ea5750600160038111156106d5576106d4611b42565b5b8160038111156106e8576106e7611b42565b5b145b610729576040517f08c379a000000000000000000000000000000000000000000000000000000000815260040161072090611e6b565b60405180910390fd5b60405180608001604052803373ffffffffffffffffffffffffffffffffffffffff16815260200183815260200182600381111561076957610768611b42565b5b815260200160001515815250600160003373ffffffffffffffffffffffffffffffffffffffff1673ffffffffffffffffffffffffffffffffffffffff16815260200190815260200160002060008201518160000160006101000a81548173ffffffffffffffffffffffffffffffffffffffff021916908373ffffffffffffffffffffffffffffffffffffffff16021790555060208201518160010190816108109190612037565b5060408201518160020160006101000a81548160ff0219169083600381111561083c5761083b611b42565b5b021790555060608201518160020160016101000a81548160ff0219169083151502179055509050503373ffffffffffffffffffffffffffffffffffffffff167fc2e5d5da58bd71d1a2d14cdef02a4256d971b728088f8190d067ccfbae3bd73e83836040516108ac929190612109565b60405180910390a25050565b600060038111156108cc576108cb611b42565b5b600160003373ffffffffffffffffffffffffffffffffffffffff1673ffffffffffffffffffffffffffffffffffffffff16815260200190815260200160002060020160009054906101000a900460ff16600381111561092e5761092d611b42565b5b1461096e576040517f08c379a0000000000000000000000000000000000000000000000000000000008152600401610965906121ab565b60405180910390fd5b600460003373ffffffffffffffffffffffffffffffffffffffff1673ffffffffffffffffffffffffffffffffffffffff16815260200190815260200160002060008273ffffffffffffffffffffffffffffffffffffffff1673ffffffffffffffffffffffffffffffffffffffff16815260200190815260200160002060009054906101000a900460ff16610a37576040517f08c379a0000000000000000000000000000000000000000000000000000000008152600401610a2e90612217565b60405180910390fd5b6000600460003373ffffffffffffffffffffffffffffffffffffffff1673ffffffffffffffffffffffffffffffffffffffff16815260200190815260200160002060008373ffffffffffffffffffffffffffffffffffffffff1673ffffffffffffffffffffffffffffffffffffffff16815260200190815260200160002060006101000a81548160ff0219169083151502179055508073ffffffffffffffffffffffffffffffffffffffff163373ffffffffffffffffffffffffffffffffffffffff167f02415eda8bce49473edc1b9f4e3f895d4055f4f94f47cc15fac2ceea76c7cefd6000604051610b2a9190611acb565b60405180910390a350565b600060016003811115610b4b57610b4a611b42565b5b600160003373ffffffffffffffffffffffffffffffffffffffff1673ffffffffffffffffffffffffffffffffffffffff16815260200190815260200160002060020160009054906101000a900460ff166003811115610bad57610bac611b42565b5b14610bed576040517f08c379a0000000000000000000000000000000000000000000000000000000008152600401610be4906122a9565b60405180910390fd5b600460008373ffffffffffffffffffffffffffffffffffffffff1673ffffffffffffffffffffffffffffffffffffffff16815260200190815260200160002060003373ffffffffffffffffffffffffffffffffffffffff1673ffffffffffffffffffffffffffffffffffffffff16815260200190815260200160002060009054906101000a900460ff169050919050565b60006003811115610c9257610c91611b42565b5b600160003373ffffffffffffffffffffffffffffffffffffffff1673ffffffffffffffffffffffffffffffffffffffff16815260200190815260200160002060020160009054906101000a900460ff166003811115610cf457610cf3611b42565b5b14610d34576040517f08c379a0000000000000000000000000000000000000000000000000000000008152600401610d2b906121ab565b60405180910390fd5b60016003811115610d4857610d47611b42565b5b600160008473ffffffffffffffffffffffffffffffffffffffff1673ffffffffffffffffffffffffffffffffffffffff16815260200190815260200160002060020160009054906101000a900460ff166003811115610daa57610da9611b42565b5b14610dea576040517f08c379a0000000000000000000000000000000000000000000000000000000008152600401610de190612315565b60405180910390fd5b600160008373ffffffffffffffffffffffffffffffffffffffff1673ffffffffffffffffffffffffffffffffffffffff16815260200190815260200160002060020160019054906101000a900460ff16610e79576040517f08c379a0000000000000000000000000000000000000000000000000000000008152600401610e7090612381565b60405180910390fd5b60036000815480929190610e8c906123d0565b91905055506040518060c0016040528060035481526020013373ffffffffffffffffffffffffffffffffffffffff1681526020018373ffffffffffffffffffffffffffffffffffffffff168152602001828152602001600015158152602001600015158152506002600060035481526020019081526020016000206000820151816000015560208201518160010160006101000a81548173ffffffffffffffffffffffffffffffffffffffff021916908373ffffffffffffffffffffffffffffffffffffffff16021790555060408201518160020160006101000a81548173ffffffffffffffffffffffffffffffffffffffff021916908373ffffffffffffffffffffffffffffffffffffffff1602179055506060820151816003019081610fb49190612037565b5060808201518160040160006101000a81548160ff02191690831515021790555060a08201518160040160016101000a81548160ff0219169083151502179055509050506003547f293ab1017d4dce6bbfd2f1a97155e877709f29ee393b5226fe7d731879fe8b66338460405161102c929190612418565b60405180910390a25050565b6000600381111561104c5761104b611b42565b5b600160003373ffffffffffffffffffffffffffffffffffffffff1673ffffffffffffffffffffffffffffffffffffffff16815260200190815260200160002060020160009054906101000a900460ff1660038111156110ae576110ad611b42565b5b146110ee576040517f08c379a00000000000000000000000000000000000000000000000000000000081526004016110e5906121ab565b60405180910390fd5b6001600381111561110257611101611b42565b5b600160008373ffffffffffffffffffffffffffffffffffffffff1673ffffffffffffffffffffffffffffffffffffffff16815260200190815260200160002060020160009054906101000a900460ff16600381111561116457611163611b42565b5b146111a4576040517f08c379a000000000000000000000000000000000000000000000000000000000815260040161119b90612315565b60405180910390fd5b6001600460003373ffffffffffffffffffffffffffffffffffffffff1673ffffffffffffffffffffffffffffffffffffffff16815260200190815260200160002060008373ffffffffffffffffffffffffffffffffffffffff1673ffffffffffffffffffffffffffffffffffffffff16815260200190815260200160002060006101000a81548160ff0219169083151502179055508073ffffffffffffffffffffffffffffffffffffffff163373ffffffffffffffffffffffffffffffffffffffff167f02415eda8bce49473edc1b9f4e3f895d4055f4f94f47cc15fac2ceea76c7cefd60016040516112979190611acb565b60405180910390a350565b60016020528060005260406000206000915090508060000160009054906101000a900473ffffffffffffffffffffffffffffffffffffffff16908060010180546112eb90611d82565b80601f016020809104026020016040519081016040528092919081815260200182805461131790611d82565b80156113645780601f1061133957610100808354040283529160200191611364565b820191906000526020600020905b81548152906001019060200180831161134757829003601f168201915b5050505050908060020160009054906101000a900460ff16908060020160019054906101000a900460ff16905084565b60046020528160005260406000206020528060005260406000206000915091509054906101000a900460ff1681565b600260038111156113d7576113d6611b42565b5b600160003373ffffffffffffffffffffffffffffffffffffffff1673ffffffffffffffffffffffffffffffffffffffff16815260200190815260200160002060020160009054906101000a900460ff16600381111561143957611438611b42565b5b14611479576040517f08c379a0000000000000000000000000000000000000000000000000000000008152600401611470906124b3565b60405180910390fd5b60038081111561148c5761148b611b42565b5b600160008373ffffffffffffffffffffffffffffffffffffffff1673ffffffffffffffffffffffffffffffffffffffff16815260200190815260200160002060020160009054906101000a900460ff1660038111156114ee576114ed611b42565b5b0361152e576040517f08c379a00000000000000000000000000000000000000000000000000000000081526004016115259061251f565b60405180910390fd5b600160008273ffffffffffffffffffffffffffffffffffffffff1673ffffffffffffffffffffffffffffffffffffffff16815260200190815260200160002060020160019054906101000a900460ff16156115be576040517f08c379a00000000000000000000000000000000000000000000000000000000081526004016115b59061258b565b60405180910390fd5b60018060008373ffffffffffffffffffffffffffffffffffffffff1673ffffffffffffffffffffffffffffffffffffffff16815260200190815260200160002060020160016101000a81548160ff0219169083151502179055508073ffffffffffffffffffffffffffffffffffffffff167f38d322dec3bc5278930f4329092943a581fd9429c40a86e190aa4ff30c9ef46f600160008473ffffffffffffffffffffffffffffffffffffffff1673ffffffffffffffffffffffffffffffffffffffff16815260200190815260200160002060020160009054906101000a900460ff166040516116ad91906125ab565b60405180910390a250565b60035481565b60008054906101000a900473ffffffffffffffffffffffffffffffffffffffff1681565b6000604051905090565b600080fd5b600080fd5b6000819050919050565b611709816116f6565b811461171457600080fd5b50565b60008135905061172681611700565b92915050565b600060208284031215611742576117416116ec565b5b600061175084828501611717565b91505092915050565b611762816116f6565b82525050565b600073ffffffffffffffffffffffffffffffffffffffff82169050919050565b600061179382611768565b9050919050565b6117a381611788565b82525050565b600081519050919050565b600082825260208201905092915050565b60005b838110156117e35780820151818401526020810190506117c8565b60008484015250505050565b6000601f19601f8301169050919050565b600061180b826117a9565b61181581856117b4565b93506118258185602086016117c5565b61182e816117ef565b840191505092915050565b60008115159050919050565b61184e81611839565b82525050565b600060c0820190506118696000830189611759565b611876602083018861179a565b611883604083018761179a565b81810360608301526118958186611800565b90506118a46080830185611845565b6118b160a0830184611845565b979650505050505050565b600080fd5b600080fd5b7f4e487b7100000000000000000000000000000000000000000000000000000000600052604160045260246000fd5b6118fe826117ef565b810181811067ffffffffffffffff8211171561191d5761191c6118c6565b5b80604052505050565b60006119306116e2565b905061193c82826118f5565b919050565b600067ffffffffffffffff82111561195c5761195b6118c6565b5b611965826117ef565b9050602081019050919050565b82818337600083830152505050565b600061199461198f84611941565b611926565b9050828152602081018484840111156119b0576119af6118c1565b5b6119bb848285611972565b509392505050565b600082601f8301126119d8576119d76118bc565b5b81356119e8848260208601611981565b91505092915050565b600481106119fe57600080fd5b50565b600081359050611a10816119f1565b92915050565b60008060408385031215611a2d57611a2c6116ec565b5b600083013567ffffffffffffffff811115611a4b57611a4a6116f1565b5b611a57858286016119c3565b9250506020611a6885828601611a01565b9150509250929050565b611a7b81611788565b8114611a8657600080fd5b50565b600081359050611a9881611a72565b92915050565b600060208284031215611ab457611ab36116ec565b5b6000611ac284828501611a89565b91505092915050565b6000602082019050611ae06000830184611845565b92915050565b60008060408385031215611afd57611afc6116ec565b5b6000611b0b85828601611a89565b925050602083013567ffffffffffffffff811115611b2c57611b2b6116f1565b5b611b38858286016119c3565b9150509250929050565b7f4e487b7100000000000000000000000000000000000000000000000000000000600052602160045260246000fd5b60048110611b8257611b81611b42565b5b50565b6000819050611b9382611b71565b919050565b6000611ba382611b85565b9050919050565b611bb381611b98565b82525050565b6000608082019050611bce600083018761179a565b8181036020830152611be08186611800565b9050611bef6040830185611baa565b611bfc6060830184611845565b95945050505050565b60008060408385031215611c1c57611c1b6116ec565b5b6000611c2a85828601611a89565b9250506020611c3b85828601611a89565b9150509250929050565b6000602082019050611c5a6000830184611759565b92915050565b6000602082019050611c75600083018461179a565b92915050565b7f496e76616c6964206170706f696e746d656e7400000000000000000000000000600082015250565b6000611cb16013836117b4565b9150611cbc82611c7b565b602082019050919050565b60006020820190508181036000830152611ce081611ca4565b9050919050565b7f4e6f7420617574686f72697a6564000000000000000000000000000000000000600082015250565b6000611d1d600e836117b4565b9150611d2882611ce7565b602082019050919050565b60006020820190508181036000830152611d4c81611d10565b9050919050565b7f4e487b7100000000000000000000000000000000000000000000000000000000600052602260045260246000fd5b60006002820490506001821680611d9a57607f821691505b602082108103611dad57611dac611d53565b5b50919050565b7f5573657220616c72656164792072656769737465726564000000000000000000600082015250565b6000611de96017836117b4565b9150611df482611db3565b602082019050919050565b60006020820190508181036000830152611e1881611ddc565b9050919050565b7f496e76616c696420726f6c650000000000000000000000000000000000000000600082015250565b6000611e55600c836117b4565b9150611e6082611e1f565b602082019050919050565b60006020820190508181036000830152611e8481611e48565b9050919050565b60008190508160005260206000209050919050565b60006020601f8301049050919050565b600082821b905092915050565b600060088302611eed7fffffffffffffffffffffffffffffffffffffffffffffffffffffffffffffffff82611eb0565b611ef78683611eb0565b95508019841693508086168417925050509392505050565b6000819050919050565b6000611f34611f2f611f2a846116f6565b611f0f565b6116f6565b9050919050565b6000819050919050565b611f4e83611f19565b611f62611f5a82611f3b565b848454611ebd565b825550505050565b600090565b611f77611f6a565b611f82818484611f45565b505050565b5b81811015611fa657611f9b600082611f6f565b600181019050611f88565b5050565b601f821115611feb57611fbc81611e8b565b611fc584611ea0565b81016020851015611fd4578190505b611fe8611fe085611ea0565b830182611f87565b50505b505050565b600082821c905092915050565b600061200e60001984600802611ff0565b1980831691505092915050565b60006120278383611ffd565b9150826002028217905092915050565b612040826117a9565b67ffffffffffffffff811115612059576120586118c6565b5b6120638254611d82565b61206e828285611faa565b600060209050601f8311600181146120a1576000841561208f578287015190505b612099858261201b565b865550612101565b601f1984166120af86611e8b565b60005b828110156120d7578489015182556001820191506020850194506020810190506120b2565b868310156120f457848901516120f0601f891682611ffd565b8355505b6001600288020188555050505b505050505050565b600060408201905081810360008301526121238185611800565b90506121326020830184611baa565b9392505050565b7f4f6e6c792070617469656e74732063616e20706572666f726d2074686973206160008201527f6374696f6e000000000000000000000000000000000000000000000000000000602082015250565b60006121956025836117b4565b91506121a082612139565b604082019050919050565b600060208201905081810360008301526121c481612188565b9050919050565b7f416363657373206e6f74206772616e7465640000000000000000000000000000600082015250565b60006122016012836117b4565b915061220c826121cb565b602082019050919050565b60006020820190508181036000830152612230816121f4565b9050919050565b7f4f6e6c7920646f63746f72732063616e20706572666f726d207468697320616360008201527f74696f6e00000000000000000000000000000000000000000000000000000000602082015250565b60006122936024836117b4565b915061229e82612237565b604082019050919050565b600060208201905081810360008301526122c281612286565b9050919050565b7f496e76616c696420646f63746f72000000000000000000000000000000000000600082015250565b60006122ff600e836117b4565b915061230a826122c9565b602082019050919050565b6000602082019050818103600083015261232e816122f2565b9050919050565b7f446f63746f72206e6f7420617070726f76656400000000000000000000000000600082015250565b600061236b6013836117b4565b915061237682612335565b602082019050919050565b6000602082019050818103600083015261239a8161235e565b9050919050565b7f4e487b7100000000000000000000000000000000000000000000000000000000600052601160045260246000fd5b60006123db826116f6565b91507fffffffffffffffffffffffffffffffffffffffffffffffffffffffffffffffff820361240d5761240c6123a1565b5b600182019050919050565b600060408201905061242d600083018561179a565b61243a602083018461179a565b9392505050565b7f4f6e6c792061646d696e2063616e20706572666f726d2074686973206163746960008201527f6f6e000000000000000000000000000000000000000000000000000000000000602082015250565b600061249d6022836117b4565b91506124a882612441565b604082019050919050565b600060208201905081810360008301526124cc81612490565b9050919050565b7f55736572206e6f7420666f756e64000000000000000000000000000000000000600082015250565b6000612509600e836117b4565b9150612514826124d3565b602082019050919050565b60006020820190508181036000830152612538816124fc565b9050919050565b7f5573657220616c726561647920617070726f7665640000000000000000000000600082015250565b60006125756015836117b4565b91506125808261253f565b602082019050919050565b600060208201905081810360008301526125a481612568565b9050919050565b60006020820190506125c06000830184611baa565b9291505056fea264697066735822122081027602e22a889e1b09cfbe261d49ca8bf2dd702d097be8d0ba6548873a89dc64736f6c634300081c0033",
  "linkReferences": {},
  "deployedLinkReferences": {}
}